:020000040800F2
:10000000D0060020A9010008A31500089B150008D0
:100010009F150008A51300085326000800000000E3
:10002000000000000000000000000000711900083E
:10003000A913000800000000451600085D1A00081A
:10004000C3010008C3010008C3010008C301000880
:10005000C3010008C3010008C3010008C301000870
:10006000C3010008C3010008C3010008C301000860
:10007000C3010008C3010008C3010008C301000850
:10008000C3010008C3010008C3010008C301000840
:10009000C3010008C3010008C3010008C301000830
:1000A000C3010008011D0008C3010008C3010008C6
:1000B0004D1D0008C3010008851E0008C30100088B
:1000C000C3010008C3010008C3010008C301000800
:1000D000C3010008C3010008C3010008E9230008A8
:1000E000C3010008C3010008C301000800F002F8C2
:1000F00000F04AF80AA090E8000C82448344AAF178
:100100000107DA4501D100F03FF8AFF2090EBAE875
:100110000F0013F0010F18BFFB1A43F0010318473B
:100120009C430000BC430000103A24BF78C878C14B
:10013000FAD8520724BF30C830C144BF04680C60ED
:10014000704700000023002400250026103A28BF35
:1001500078C1FBD8520728BF30C148BF0B60704739
:10016000662904F05681642900F04C800020704715
:100170001FB500F0DDFB04000020002103F038FA79
:10018000E0601FBD10B510BD00F0D6FC1146FFF7B2
:10019000EFFF02F0E3FD00F0F4FC03B4FFF7F2FF21
:1001A00003BC02F073FA0000094880470948004781
:1001B000FEE7FEE7FEE7FEE7FEE7FEE7FEE7FEE717
:1001C000FEE7FEE704480549054A064B7047000074
:1001D000611A0008ED000008D0000020D0060020C1
:1001E000D0020020D0020020704700000FB4044964
:1001F00010B503AA029800F089FB10BC5DF814FB4F
:10020000080000202DE9F0410646002410687529F9
:10021000314616A510D0AFF30080002802DA404224
:1002200013A507E031688A0701D512A502E0490746
:1002300004D511A5012401E0AFF3008000210A22BA
:1002400006F1240709E0B0FBF2FCB0FBF2F302FB7D
:100250001C00303078541846491C0028F3D123463E
:100260002A463046BDE8F04100F0D0B8000000005A
:100270002D0000002B000000200000002DE9F05FA1
:10028000894604464FF0000ADFF874B1FB44C0F819
:1002900020A02046E1688847002874D0252806D091
:1002A000D4E901219047206A401C2062F1E7002632
:1002B0005F462046E16888472028054607DB312D48
:1002C00005D2781910F8200C08B10643F1E7B00701
:1002D00001D526F00406C4F81CA00027C4F818A015
:1002E0002A2D09D0284602F0CAF938B304EB870852
:1002F000303DC8F8185019E059F8041B204604EBAB
:1003000087029161E1688847012F054618D1E069AD
:10031000002820DA26F020061DE0D8F8180000EBAF
:10032000800005EB40003038C8F818002046E1682E
:100330008847054602F0A3F90028EED1012F0AD024
:100340002E2D08D12046E16888477F1C0546022FE4
:1003500046F02006C4DBA069002803DA404246F0DC
:100360000106A061F00701D026F010066C2D0BD01D
:10037000682D09D04C2D39D06A2D35D0742D35D04B
:100380007A2D33D016E038E0E1682F4620468847C2
:10039000B842054609D16C2F26D04FF48060E16841
:1003A000064320468847054604E06C2F1AD04FF4D8
:1003B000807006430DB3A5F14100192802D82035FD
:1003C00046F400664A462946204626604E46FFF718
:1003D000C7FE80B101280BD0F61D26F0070000F102
:1003E000080956E74020E4E78020D8E70020D6E758
:1003F00006F104094DE7284652E7206ABDE8F09F60
:100400008641000070477047704770472DE9F047FC
:100410000D4699469246044600F124080168880674
:1004200004D5E06921F01001216000E00120A8421C
:1004300001DD471B00E00027A1697A1902EB0900E2
:10044000081AA0612078C00602D42046AFF30080CD
:10045000002608E0D4E901211AF806009047206A36
:10046000401C761C20624E45F4DB2078C0060AD57D
:100470002046AFF3008006E0D4E901213020904708
:10048000206A401C2062381EA7F10107F4DC07E057
:10049000D4E9012118F805009047206A401C206229
:1004A000281EA5F10105F3DC2046AFF3008020787B
:1004B000000602D50220BDE8F0870120FBE7704767
:1004C0002DE9FF4F0C461E464FF0FF378BB0D2E9A7
:1004D0000001DDF860800A908A46C1F30A5505B92B
:1004E0003D46002108464FF00000BAF1000F00F42D
:1004F000400005DA00EB80004FF4400101EA5000B3
:100500004FEA9059B9F1010F00DDB9460A9850EA57
:100510004A000ED044F61050A5F2FF3545432F1483
:10052000B8F1000F1ED07542291E1EDDC9F1000270
:100530001CE0B8F1010F4FF0000001D0302103E0C2
:10054000F24305E02154401CB042FBDB3046002260
:10055000002121540B99C1F80880C1E900200FB097
:10056000BDE8F08FBD1B6D1CDEE74A4600DA69422C
:1005700006A800F067FA06AB93E8070003AB83E830
:10058000070050460A9900F045FB8DE80700A0F5EA
:1005900000501F3800900398002D0ADD42F21F0121
:1005A0004A460844002303A90390684600F0AEFDC4
:1005B00009E0A0F500504A461F38002303A9039024
:1005C000684600F0B8FD8DE807000004000C03D079
:1005D0004FF0FF30410800E01046B8F1000F03D0A3
:1005E0000022009215461EE0751E05D400F0A4F905
:1005F000303262556D1EF9D5B3460122084302D050
:1006000000227F1C04E02078302801D100227F1EC8
:10061000002A099784D01DE0112D07DA00F08CF92B
:10062000303262556D1C50EA0102F5D1084302D008
:100630000098C8B10EE00021681E05E0235C625CF2
:1006400063542254401E491C8142F7DBAB46A81B71
:10065000401E0990002004F80B000B98099AC0F87E
:100660000880C0E9002B7AE711264FF0000857E711
:100670002DE9F04F88460446D21D22F0070191B0C3
:10068000D1E90001CDE90A0101F0E5FF02460B982E
:10069000C00F01D02D2007E02068810701D52B2055
:1006A00002E0202101EAC000032A099001D0072AB4
:1006B00005DB03464146204600F084F90BE1207833
:1006C000800601D5E06900E00620B8F1650F81469B
:1006D00006D0B8F1660F18D0B8F1670F70D131E0CD
:1006E0000020B9F1110F009001DB112301E009F1A5
:1006F00001030AAA01A90CA8FFF7E2FEDDE90C70CC
:10070000002609F10105834647E001204B46009091
:100710004FF000470AAA01A90CA8FFF7D1FEDDE9B6
:100720000DB00C995D46002610B909F101000D18B5
:10073000B9EB050003D4C0F1FF3609F10105A5EBC3
:1007400009002BE0B9F1010F01DA4FF00109002097
:10075000B9F1110F0090484601DD112300E0034676
:100760000AAA01A90CA8FFF7ABFEDDE90C704D4603
:1007700000268346207800070AD4AB4500DA5D46A0
:1007800001A8012D04DD411911F8011C302907D001
:100790004F4502DA17F1040F04DA012082460FE018
:1007A0006D1EEEE7002F02DCED1B3E4403E0781CDB
:1007B000A84200DD7D1CB81B00F1010A4FF0004784
:1007C0002078000703D4AA4501DB4FF0FF3A00214F
:1007D000B7F1004F0DF143088DF8431024D00220EB
:1007E0002B23002F01DA7F422D230A21021EA0F1C4
:1007F000010000DC5FB197FBF1FC97FBF1F201FB1C
:100800001C7C17460CF1300C08F801CDEEE7A8F17E
:10081000010003702188090501D5452100E065210B
:10082000A0F1010800F8011C09980FA9A1EB080725
:10083000FF1D00B10120411901EBEA70A1693844A4
:10084000081A401EA0612078C00602D42046AFF3EB
:100850000080099828B1D4E901219047206A401C02
:1008600020622078C00622D52046AFF300801EE02B
:10087000002E04DBB34502DD01A8805D00E03020DE
:10088000D4E901219047206A401C2062761CAAF11D
:1008900001005FEA000A0AD100F04AF8C068016866
:1008A000405CD4E901219047206A401C2062281E48
:1008B000A5F10105DCDC07E0D4E9012118F8010B02
:1008C0009047206A401C2062381EA7F10107F3DC24
:1008D0002046AFF30080032011B041E601694A1CB5
:1008E00002610878704700B58FB0CDE90131002171
:1008F000059105497944CDE9031011466846FFF793
:10090000BDFC0FB000BD0000E5FFFFFF074B70B559
:100910000D467B44FFF7E7FF0446284600F004F944
:1009200010B14FF0FF3070BD204670BD7B2100003C
:10093000004870478C00002030B5B0F10A024FEA41
:10094000900E71F100034EEA817EB0EB0E0061EB78
:1009500091014FEA101E4EEA017E10EB0E0041EBB2
:1009600011114FEA102E4EEA016E10EB0E0041EB12
:1009700011214FEA104E4EEA014E10EB0E0041EBF2
:100980001141401841F100014FEAD00040EA4170A6
:100990004FEAD10110EB80054FEA810444EA9074DC
:1009A00044EB01046D1944EB0404521BA3414FF0C6
:1009B000000348BF0A3200D530BD401C41F10001A0
:1009C00030BD00002DE9F0411F46044603260168B2
:1009D000072A01F4006004DB08B116A505E016A59E
:1009E00003E008B115A500E015A521F01000206076
:1009F000A069C01EA0610FB1401EA0612046AFF3E8
:100A000000804FB1D4E9012138469047206A401C4C
:100A10002062C01C206206E0206AFAE7D4E90121C6
:100A200015F8010B9047761EF8D22046AFF30080F0
:100A3000BDE8F0814E414E006E616E00494E4600A9
:100A4000696E66002DE9F047814616468AB0354842
:100A500078440DC88DE80D0032487844801C03AC02
:100A60000DC884E80D0041F69B300844372190FB07
:100A7000F1F290FBF1F5A5F1800501FB12041B3C9E
:100A800002D56442012000E00020DFF898A08046F3
:100A90000027FA44AAF1BE0A0EE0E0070AD0324667
:100AA000684607EB470101230AEB810100F043FB95
:100AB0008DE8070064107F1C002CEED1194F7F4495
:100AC000AE3F19E0E80715D007EB04100DF1180A46
:100AD00090E80E008AE80E00C068F04201D1981933
:100AE00008903246012306A903A800F024FB03ABBB
:100AF00083E807006D10641C002DE3D14FF0010363
:100B000032466946B8F1000F03A802D000F0FEFAA1
:100B100001E000F010FBC9E90001C9F808200AB0A3
:100B2000BDE8F087503A0000007B00F0800070477D
:100B3000004870476C0000207546FFF7F9FFAE468D
:100B400005006946534620F00700854618B020B5D9
:100B5000FFF738FBBDE820404FF000064FF00007DC
:100B60004FF000084FF0000B21F00701AC46ACE855
:100B7000C009ACE8C009ACE8C009ACE8C0098D46C2
:100B8000704710B50446AFF300802046BDE8104022
:100B9000FFF703BB4FF0013C50F8042B51F8043B26
:100BA0009A4221D1A2EB0C03934313EACC1317D141
:100BB00050F8042B51F8043B9A4215D1A2EB0C03D8
:100BC000934313EACC130BD150F8042B51F8043B98
:100BD0009A4209D1A2EB0C03934313EACC13DBD066
:100BE0004FF00000704700BFD01A01BAB1FA81F18E
:100BF00001F0180122FA01F0CB40C1F12001DBB273
:100C0000C0B2C01A2CFA01F3D11A914311EAC311F0
:100C1000E6D170475FEA400C08BF91F0000F4FEA41
:100C20008C234FEAC12243EA51514FEA1C5018BFAE
:100C300000F5F0404FEA300018BF41F000415FEA94
:100C40006C5C00F02980BCF1FF3F08BF40F08040A1
:100C50007047130C06BF12044FF0100C4FF0000C3D
:100C6000130E04BF12020CF1080C130F04BF120183
:100C70000CF1040C930F04BF92000CF1020CD30F83
:100C800004BF52000CF1010C11464FF00002A0F11C
:100C90001F00A0EB0C00704711F0004F08BF704719
:100CA00031F000413FF4D5AF0B0C06BF09044FF003
:100CB000100C4FF0000C0B0E04BF09020CF1080CD5
:100CC0000B0F04BF09010CF1040C8B0F04BF89004A
:100CD0000CF1020CCB0F04BF49000CF1010CCCF15C
:100CE0002003A0EB0C0022FA03F302FA0CF241EA13
:100CF000030100F10100704720F07F4C80EA0300FF
:100D000023F07F47ACEB070303F57C5300F0004072
:100D100003F1FF032DE980494FEA154B09B44FEA6F
:100D2000144325EA0B4E24EA03480FF2042606EB8F
:100D3000132749083E785FEA320203FB0667C7F5CE
:100D4000000707FB06F64FEA54374FEAD64606F18E
:100D5000020607FB066CCCF1005C4FEA1C472CEA4C
:100D6000074C07FB06F40CFB06F504EB15464FEAAF
:100D7000961634BF00204FF000404FEAD13706FBF3
:100D800007FC4FEA1C4C0CFB0BF7D21B03FB0CF7C8
:100D900061EB07010CFB0EF7B0EB074072EB17425B
:100DA0000CFB08F734BFA2EB0742B2EB074261EB42
:100DB00017414FEA0C444FEA910706FB07FC4FEA44
:100DC0001C4C0CFB0BF7B0EBC74072EB573203FB2C
:100DD0000CF734BFA2EBC742B2EBC74261EB57310D
:100DE0000CFB0EF7B0EBC70072EB57720CFB08F769
:100DF00034BFA2EBC702B2EBC70261EB5771039F8E
:100E00004FEA816141EA921104EBCC044FEAD137F9
:100E10004FEA826206FB07FC42EA90124FEA8060CA
:100E20004FEA1C4C0CFB0BF7D21B03FB0CF761EBDE
:100E300007010CFB0EF7B0EB074072EB17420CFBFF
:100E400008F734BFA2EB0742B2EB074261EB174150
:100E50004FEA8C554FEA910704EB9C2406FB07FCF4
:100E60004FEA1C4C0CFB0BF7B0EBC74072EB573250
:100E700003FB0CF734BFA2EBC742B2EBC74261EBF6
:100E800057310CFB0EF7B0EBC70072EB57720CFB3F
:100E900008F734BFA2EBC702B2EBC70261EB577190
:100EA00015EB4C254FEA816141EA92114FEA8262CB
:100EB0004FEAD13742EA901206FB07FC44F10004E6
:100EC0004FEA80604FEA1C4C0CFB0BF7D21B03FB74
:100ED0000CF761EB07010CFB0EF7B0EB074072EB70
:100EE00017420CFB08F734BFA2EB0742B2EB0742F4
:100EF00061EB174115EB1C154FEA813141EA924134
:100F00004FEA823242EA90424FEA80304FEA0C7652
:100F100044F1000448EA03434EEA0B484FF0000E48
:100F2000B2EB080C71EB030724BF624639464EEB67
:100F30000E0E4FF0000B0018524149414BEB0B0BCA
:100F4000B2EB080C71EB03077BF1000B24BF624688
:100F500039464EEB0E0E4FF0000B0018524149413E
:100F60004BEB0B0BB2EB080C71EB03077BF1000BA7
:100F700024BF624639464EEB0E0E51EA020718BFF7
:100F800046F0010616EB0E7655F1000254F1000111
:100F900003D5BDE88901BDE80088BDE88901BDE849
:100FA0000048B619524141EB0101A3F1010370471A
:100FB00080807F7E7D7C7B7A797877767675747396
:100FC000727171706F6E6E6D6C6C6B6A6A69686855
:100FD000676666656464636362616160605F5F5EEB
:100FE0005E5D5D5C5C5B5B5A5A5959585857575661
:100FF00056555555545453535252525151505050C6
:101000004F4F4F4E4E4D4D4D4C4C4C4B4B4B4A4A17
:101010004A4949494848484747474746464645455B
:101020004544444444434343434242424241414194
:10103000002B9C4630D477002BD01CB54FEA3707E5
:1010400003B44FF010004FF01001BAF1000F06D0BA
:10105000BCF1000FDCBF40F0080040F008014FF089
:1010600000000FBCBDE810400BF1010BBBF1010FFC
:1010700008BF5FEA170722BF12F1010211F1010157
:101080004FF0004143F1000300F0004043EA00004C
:101090007047F9D35708D0E746EA064613F1400FE8
:1010A0004FEA16461FDD13F1200FDFBF16430A4635
:1010B000002120335B42BED0C3F1200746EA06463A
:1010C00002FA07F74FEA164646EA0706C3F1200779
:1010D00022FA03F201FA07F721FA03F14FF00003B5
:1010E00042EA0702A7E746EA020646EA06464FEA50
:1010F000164646EA0106BCBF46EA0646360C4FF0E5
:1011000000034FF000024FF0000194E72DE9804CFE
:101110009A46934670B491E8380007C831EA400C0B
:1011200048BF34EA430C03D5FFF7E6FDFFF780FF25
:10113000F0BCBDE8008C2DE9804C9A46934670B413
:1011400091E8380007C810F0804F08BF13F0804FB7
:1011500003D100F005F8FFF76BFFF0BCBDE8008C91
:1011600020F07F4780EA030023F07F4C07EB0C035D
:10117000A3F57C5300F00040A3F1FE0392F0000FB2
:1011800000F0B38095F0000F00F077802DE9014961
:101190004FEA11404FEA144621EA004800FB06FCE2
:1011A00024EA064708FB06F607FB08F800FB07F7EA
:1011B00018EB06484CEB164C4FEA124B18EB07485D
:1011C0004FEA15464CEB174022EA0B4E0BFB06FC90
:1011D00025EA06470EFB06F607FB0EFE0BFB07F79C
:1011E0001EEB064E4CEB164C4FF000061EEB074E66
:1011F0004CEB174B18EB0B0840F1000018EB0E0BF3
:1012000058EB000840F100008F1A4FF000013CBF7E
:10121000C943661B14BFB5EB040C00213CBFC94396
:10122000F61B4FEA17444EEA8E0E27EA04454FEAB2
:101230001C4704FB07622CEA074C05FB07F70CFB75
:1012400005F604FB0CFC16EB074642EB174216EBC7
:101250000C4642EB1C421BEB060658EB02024141D6
:1012600046EA9E0601D5BDE80189B619524141EB17
:101270000101A3F10103BDE801894FEA14454FEADA
:10128000114724EA054621EA074C05FB07F406FB53
:1012900007F70CFB06F105FB0CFC11EB074144EBD7
:1012A00017444FEA124711EB0C4144EB1C4422EA6D
:1012B000074C05FB07F206FB07F70CFB06F605FBE0
:1012C0000CFC16EB074642EB174216EB0C4642EBC2
:1012D0001C456A1854F1000148BF7047B6195241C5
:1012E00041EB0101A3F10103704795F0000F37D0E6
:1012F0004FEA11424FEA144721EA024624EA074C1A
:1013000002FB07F106FB07F70CFB06F402FB0CFCE3
:1013100014EB074441EB17414FEA154714EB0C441B
:1013200041EB1C4125EA074C02FB07F506FB07F7DA
:101330000CFB06F602FB0CFC16EB074645EB1745CB
:1013400016EB0C4645EB1C42121951F1000148BF47
:101350007047B619524141EB0101A3F101037047F7
:101360004FEA14454FEA114724EA054621EA074CA3
:1013700005FB07F106FB07F70CFB06F24FF0000632
:1013800005FB0CFC12EB074241EB174112EB0C4240
:1013900051EB1C4148BF7047921841EB0101A3F18A
:1013A0000103704700BFFEE7704700000549096868
:1013B00021F01001034A11601146096801431160D0
:1013C000704700000020024001460020034A1068D8
:1013D00000F0380008431060704700000020024011
:1013E0002DE9F041024600250026002000230024BC
:1013F000002791F803C00CF00F0591F803C00CF022
:10140000100CBCF1000F03D091F802C04CEA0505A6
:1014100091F800C0BCF1000F31D0146800202BE01F
:101420004FF0010C0CFA00F3B1F800C00CEA03060F
:101430009E4220D183004FF00F0C0CFA03F7BC43FF
:1014400005FA03FC4CEA040491F803C0BCF1280F30
:1014500006D14FF0010C0CFA00FCC2F814C00AE0EF
:1014600091F803C0BCF1480F05D14FF0010C0CFA04
:1014700000FCC2F810C0401C0828D1D31460B1F899
:1014800000C0BCF1FF0F34DD546800202EE000F1F5
:10149000080C4FF0010808FA0CF3B1F800C00CEA90
:1014A00003069E4221D183004FF00F0C0CFA03F784
:1014B000BC4305FA03FC4CEA040491F803C0BCF1F8
:1014C000280F05D100F1080C08FA0CF8C2F81480B6
:1014D00091F803C0BCF1480F07D100F1080C4FF0A0
:1014E000010808FA0CF8C2F81080401C0828CED376
:1014F0005460BDE8F0810000F0B50A4600230024E6
:101500000021002500F00046B6F1004F02D11D4E2B
:10151000F16901E01B4E7168C0F3034583B200F42A
:101520004016B6F5401F08D121F07061154E76685F
:1015300026F07066134F7E6012E000F48016B6F558
:10154000801F06D1032606FA05F4A14341F070611D
:1015500006E0460D360103FA06F6B14341F070612C
:1015600022B1460D360103FA06F6314300F000467B
:10157000B6F1004F02D1034EF16101E0014E7160FE
:10158000F0BD0000000001400246002093680B40BF
:101590000BB1012000E00020704700BFFEE700BF54
:1015A000FEE7704708B519208DF8000001208DF87E
:1015B000030003208DF80200684600F001F808BD22
:1015C00070B5002100230F22C47804B3154C2468A1
:1015D00004F4E064C4F5E064210AC1F10403CA40E4
:1015E000447804FA03F184781440214309010E4C35
:1015F0000678A155047804F01F050124AC40057855
:101600006D11AD0005F1E025C5F8004109E0047851
:1016100004F01F050124AC40044D0678761145F80E
:10162000264070BD0CED00E000E400E080E100E049
:1016300002490143024A1160704700000000FA05A8
:101640000CED00E07047000029B1064AD269024360
:10165000044BDA6104E0034AD2698243014BDA6148
:10166000704700000010024029B1064A9269024307
:10167000044B9A6104E0034A92698243014B9A61E8
:10168000704700000010024010B500F035F84FF42C
:10169000803000F0F3F800F04FF90446012C24D11B
:1016A0004FF4E011000400F02DF9002000F0DAF80A
:1016B000A00200F009F9002000F012F90220FFF763
:1016C00083FE1020FFF772FE012000F015F900BF25
:1016D000392000F0A1F80028FAD0022000F020F90B
:1016E00000BF00F0B7F80828FBD1012144F27C00CC
:1016F000FFF7BAFF10BD00000F48006840F001007E
:101700000D490860084640680C4908400A4948608D
:10171000084600680A49084007490860084600680A
:1017200020F4802008600846406820F4FE004860ED
:101730004FF41F0088607047001002400000FFF85F
:10174000FFFFF6FE30B500210022002400232D4DBE
:101750006D6805F00C0121B1042905D0082923D1B9
:1017600005E0294D056022E0274D05601FE0254D6D
:101770006D6805F47012234D6D6805F48034022500
:1017800005EB92421CB9214D554305600BE01D4D00
:101790006D6805F400351DB11C4D5543056002E030
:1017A000194D5543056002E0174D056000BF00BFAD
:1017B000144D6D6805F0F0010909154D6B5C056865
:1017C000DD4045600F4D6D6805F4E061090A104D7C
:1017D0006B5C4568DD4085600A4D6D6805F46051BD
:1017E000C90A0B4D6B5C4568DD40C560054D6D68F1
:1017F00005F44041890B074D6B5CC568B5FBF3F5FB
:10180000056130BD0010024000127A0000093D0061
:10181000580000206800002010B501460022002377
:1018200000204A11012A02D1094C236806E0022A4D
:1018300002D1074C236A01E0054C636A01F01F02E4
:10184000012494401C400CB1012000E0002010BD98
:10185000001002400248406800F00C007047000091
:101860000010024001460020034A506820F0F000BA
:101870000843506070470000001002401149096899
:1018800021F480310F4A11601146096821F480214A
:101890001160B0F5803F03D0B0F5802F0ED106E087
:1018A0000849096841F48031064A116007E005499A
:1018B000096841F4A021034A116000E000BF00BFA5
:1018C000704700000010024001460020034A5068A3
:1018D00020F4E060084350607047000000100240B0
:1018E00001460020034A506820F4605040EAC100DD
:1018F00050607047001002400149086670470000C0
:101900000000424202460020044B586820F47C103C
:1019100042EA01031843014B58607047001002402F
:1019200001460020034A506820F00300084350603D
:10193000704700000010024038B5002000900024DD
:10194000002500BF3120FFF767FF05460098401CC7
:1019500000900098B0F5A06F01D0002DF2D031209A
:10196000FFF75AFF08B1012400E00024204638BDEB
:10197000704710B500F002F810BD00000CB5002053
:10198000019000903348006840F48030314908608D
:1019900000BF3048006800F4003000900198401CFF
:1019A0000190009818B90198B0F5A06FF1D12948BD
:1019B000006800F4003010B10120009001E0002028
:1019C00000900098012843D12348006840F010009F
:1019D000214908600846006820F0030008600846B6
:1019E000006840F0020008601A48406819494860E1
:1019F0000846406848600846406840F48060486097
:101A00000846406820F47C1048600846406840F46E
:101A1000E81048600846006840F08070086000BF29
:101A20000C48006800F000700028F9D009484068B0
:101A300020F00300074948600846406840F0020073
:101A4000486000BF0348406800F00C000828F9D146
:101A50000CBD000000100240002002407047000052
:101A600010B51348006840F00100114908600846AD
:101A70004068104908400E494860084600680E4911
:101A800008400B4908600846006820F48020086080
:101A90000846406820F4FE0048604FF41F0088604C
:101AA000FFF767FF4FF000600449086010BD0000B9
:101AB000001002400000FFF8FFFFF6FE08ED00E016
:101AC000F0B50C46154600220021068C4FF6FE7735
:101AD0003E400684028B018C4FF60C7632407E1C11
:101AE00006EA03162E433243104EB0420ED0104E7B
:101AF000B0420BD0B0F1804F08D00E4EB04205D0AE
:101B00000D4EB04202D00D4EB04206D14FF6FD76DA
:101B1000314044F00106314305E04FF6F57631409F
:101B200044F00106314302830184F0BD002C0140E2
:101B3000003401400004004000080040000C004058
:101B4000F0B50C461546002200210026078C4FF602
:101B5000EF7C07EA0C070784028B018C4FF6FF77B6
:101B600007EA041640F6FF473A404FF6FF7707EAC8
:101B700003373A434FF6FF7707EA05273A43114FF9
:101B8000B8420ED0104FB8420BD0B0F1804F08D001
:101B90000E4FB84205D00E4FB84202D00D4FB8429A
:101BA00006D14FF6DF77394046F01007394305E09C
:101BB0004FF65F77394044F01007394302830184C0
:101BC000F0BD0000002C0140003401400004004042
:101BD00000080040000C0040F0B50C4615460022FD
:101BE00000210026078C4FF6FF6C07EA0C070784DC
:101BF000828B018C4FF6FF7707EA04264FF60C77AD
:101C00003A404FF6FF7707EA03172F433A43114F45
:101C1000B8420ED0104FB8420BD0B0F1804F08D070
:101C20000E4FB84205D00E4FB84202D00D4FB84209
:101C300006D14FF6FF57394046F48077394305E027
:101C40004FF2FF57394044F480773943828301844F
:101C5000F0BD0000002C01400034014000040040B1
:101C600000080040000C0040F0B50C46154600226C
:101C700000210026078C4EF6FF7C07EA0C0707843C
:101C8000828B018C4FF6FF7707EA043640F6FF4758
:101C90003A404FF6FF7707EA05273A434FF6FF77BA
:101CA00007EA03373A43114FB8420ED0104FB842FB
:101CB0000BD0B0F1804F08D00E4FB84205D00E4F78
:101CC000B84202D00D4FB84206D14DF6FF773940E9
:101CD00046F48057394305E047F6FF57394044F44E
:101CE0008057394382830184F0BD0000002C0140FD
:101CF000003401400004004000080040000C004097
:101D000010B501210D4800F019F9A8B101210B48C7
:101D100000F0D5F84FF08040808C00B20849086090
:101D200000204FF0804188840648008800B20649B0
:101D3000086000200349088010BD0000002C01400D
:101D400014000020240800401800002010B50121D4
:101D5000880700F0F3F818B10121880700F0AFF808
:101D600010BD000010B588B00446404890FBF4F068
:101D7000401E3F49088000203E4908800121022082
:101D8000FFF762FC01210C20FFF76EFCC020ADF8CC
:101D90001C0018208DF81F0003208DF81E0007A9D5
:101DA0003548FFF71DFB0320ADF81C0018208DF807
:101DB0001F0003208DF81E0007A93048FFF710FB15
:101DC0002B480088ADF814002A480088ADF81000B0
:101DD0000020ADF81600ADF8120004A9284800F064
:101DE000A7FA7020ADF800000120ADF80200ADF8B0
:101DF00006000020ADF808006946214800F018F9F7
:101E00000120ADF80200ADF8060069461C4800F05C
:101E10005BF908211A4800F0A9F90120ADF8020089
:101E2000ADF806006946164800F0AEF908211448DE
:101E300000F0FAF90120ADF80200ADF8060069469D
:101E40000F4800F0FBF908210D4800F035FA012198
:101E50000B4800F043F80121094800F021F8012166
:101E6000074800F02FF808B010BD0000401901002D
:101E7000040000200600002000080140000C014082
:101E80000004004010B50121044800F057F818B1D3
:101E90000121024800F013F810BD000000080040C6
:101EA00021B1028842F08002028004E002884FF6ED
:101EB0007F731A4002807047CA4302827047CA4348
:101EC0000282704721B1028842F00102028004E0E0
:101ED00002884FF6FE731A400280704731B1B0F8A5
:101EE000442042F40042A0F8442005E0B0F8442029
:101EF000C2F30E02A0F844207047F0B50C46154618
:101F00001E460021002200230189028B038C4FF61C
:101F1000F877394021434FF6FC473A4040F2011729
:101F20003A434FF6DD773B404FF6FF7707EA061757
:101F30002F433B43018102830384F0BD30B5024649
:101F4000002000230024158A05EA0103958905EA8B
:101F5000010413B10CB1012000E0002030BD0000ED
:101F600070B505460C46244885420ED0234885426C
:101F70000BD0B5F1804F08D02148854205D02148CB
:101F8000854202D02048854200D100E000BF208871
:101F900050B92389A28861882846FFF791FDE1881E
:101FA000284600F098F925E0208804280AD12389E2
:101FB000A28861882846FFF7C3FDE188284600F023
:101FC00093F917E0208808280AD12389A28861881C
:101FD0002846FFF701FEE188284600F092F909E063
:101FE0002389A28861882846FFF73EFEE1882846BB
:101FF00000F090F970BD0000002C01400034014059
:102000000004004000080040000C00400021018056
:102010004180012181800021C180018170471AB176
:1020200083890B43838102E083898B4383817047DB
:1020300070B5002400220023058C4FF6FE76354053
:102040000584028C8388048B4FF68F752C40B51E57
:102050002C400D882C43751E2A400D892A434D883B
:102060002A43144DA8420BD0134DA84208D0134D5B
:10207000A84205D0124DA84202D0124DA84213D159
:102080004FF6F7752A404D892A434FF6FB752A40D3
:102090008D882A434FF6FF652B404FF6FF552B40A6
:1020A0008D892B43CD892B4383800483CD888586FE
:1020B000028470BD002C014000340140004001400A
:1020C000004401400048014070B500240022002374
:1020D000058C4FF6EF7635400584028C8388048B9F
:1020E00048F6FF752C404FF6FF452C400D884FF603
:1020F000FF7606EA05252C434FF6DF752A400D8949
:1021000006EA05152A434D8806EA05152A43154DAA
:10211000A84202D0144DA8421DD14FF67F752A4027
:102120004D894FF6FF7606EA05152A434FF6BF752F
:102130002A408D8806EA05152A434FF6FF352B40C5
:102140004FF2FF752B408D8906EA85052B43CD891B
:1021500006EA85052B4383800483CD8805870284A6
:1021600070BD0000002C0140003401400A460021EF
:10217000018B4FF2FF7319404FF6FF7303EA0223FE
:10218000194301837047000070B50024002200232A
:10219000058C4FF6FF6635400584028C8388848B5E
:1021A0004FF68F752C404FF6FC752C400D882C4354
:1021B0004FF6FF552A400D894FF6FF7606EA0525B2
:1021C0002A434D8806EA05252A43154DA84202D028
:1021D000144DA8421DD14FF2FF752A404D894FF68C
:1021E000FF7606EA05252A434FF6FF352A408D88FB
:1021F00006EA05252A434EF6FF752B404DF6FF757E
:102200002B408D8906EA05152B43CD8906EA051575
:102210002B4383808483CD888587028470BD000032
:10222000002C0140003401400A460021818B4FF60A
:10223000F7731940114381837047000070B5002285
:1022400000230024058C4EF6FF7635400584038C70
:102250008488828B48F6FF752A404FF6FF452A4056
:102260000D884FF6FF7606EA05252A434DF6FF75E1
:102270002B400D8906EA05352B434D8806EA0535C6
:102280002B430B4DA84202D00A4DA84208D14BF671
:10229000FF752C408D894FF6FF7606EA85152C4395
:1022A00084808283CD88A0F84050038470BD0000F4
:1022B000002C0140003401400A460021818B4FF27E
:1022C000FF7319404FF6FF7303EA0223194381831A
:1022D000704781847047028B4FF6F3731A40028374
:1022E000028B0A4302837047028B4FF2FF331A407E
:1022F0000283028B4FF6FF7303EA01231A43028322
:102300007047828B4FF6F3731A408283828B0A43A5
:1023100082837047828B4FF2FF331A408283828B15
:102320004FF6FF7303EA01231A43828370470000CC
:10233000002202881D4B98420ED01D4B98420BD0B4
:10234000B0F1804F08D01B4B984205D01A4B9842F1
:1023500002D01A4B984204D14FF68F731A404B8823
:102360001A43174B984207D0164B984204D04FF6A9
:10237000FF431A40CB881A4302808B8883850B88E1
:1023800003850A4B98420BD0094B984208D00E4B5C
:10239000984205D00D4B984202D00D4B984201D186
:1023A0000B7A03860123838270470000002C0140D2
:1023B000003401400004004000080040000C0040D0
:1023C0000010004000140040004001400044014063
:1023D000004801404FF6FF71818000210180C180DB
:1023E000418001727047000010B540F22551064847
:1023F00000F06EF830B1044800F026F9C4B220466F
:1024000000F002FD10BD00000048004010B586B08D
:10241000044601210820FFF727F901218804FFF76E
:1024200013F94FF40060ADF8140004208DF8170084
:1024300005A91F48FEF7D4FF4FF48060ADF81400E3
:1024400003208DF8160018208DF8170005A91848EC
:10245000FEF7C6FF01940020ADF80800ADF80A00B1
:10246000ADF80C00ADF810000C20ADF80E0001A97D
:10247000104800F07DF8012240F225510D4800F08F
:1024800051F801210B4800F017F84FF4E060FFF716
:10249000CFF827208DF8000000208DF802000120E1
:1024A0008DF803006846FFF78BF806B010BD0000FA
:1024B000000C01400048004021B1828942F40052E2
:1024C000828104E082894DF6FF731A408281704751
:1024D00070B50246002400230025002040F66A164D
:1024E000B14200D100BFC1F3421501F01F03012624
:1024F00006FA03F3012D02D19689334006E0022D3E
:1025000002D1168A334001E0968A33400C1201262C
:1025100006FA04F41688344013B10CB1012000E02F
:10252000002070BDF0B503460024002600250020E1
:1025300040F66A17B94200D100BF1846C1F34214F1
:1025400001F01F06012707FA06F5012C01D10C3016
:1025500004E0022C01D1103000E014301AB10768F9
:102560002F43076002E00768AF430760F0BD00003B
:102570002DE9F04786B005460E460024A24600BF6E
:10258000A1460027B08900B100BF2F462C8A4CF627
:10259000FF700440F08804432C82AC894EF6F3109F
:1025A0000440B08831890843718908430443AC81F1
:1025B000AC8A4FF6FF400440B0890443AC8201A8C6
:1025C000FFF7C0F81F48874202D1DDF810A001E0F4
:1025D000DDF80CA0A88900F4004040B10AEBCA0065
:1025E00000EB0A1031684900B0FBF1F807E00AEB94
:1025F000CA0000EB0A1031688900B0FBF1F86420D2
:10260000B8FBF0F004012009642101FB1089A889BE
:1026100000F4004040B1322000EBC900B0FBF1F003
:1026200000F00700044308E0322000EB09106421A9
:10263000B0FBF1F000F00F0004432C8106B0BDE8C0
:10264000F08700000038014001468888C0F3080088
:10265000704700BFFEE7490050EAC12018BF0420C0
:102660004A0D18BF40F0010040F2FF72B2EB515F1B
:1026700008BF40F00200012808BF0520704730382D
:102680000A2801D20120704700207047014600BF90
:10269000002070472DE9F04F8DB00446894625464D
:1026A0002A4800682E1A2A480068301A0C902748D9
:1026B0000560274806600C9801F0C5F80746254AD2
:1026C000254B01F013F9CDE90401284601F0BBF8D0
:1026D0000746204A204B01F009F982468B463046D6
:1026E00001F0B1F8074600221C4B01F0FFF85246FA
:1026F0005B46CDE9000100F0C3FFCDE90201DDE951
:10270000042300F0BDFFCDE90801484601F00CFBB1
:10271000CDE90601DDE9082300F0B2FFCDE90A01A9
:1027200000F07CFF81460E49484601F0C1FD01D80A
:10273000DFF82C900021484601F0BAFC01D84FF098
:10274000000948460DB0BDE8F08F000040000020B1
:1027500044000020FCA9F1D24D62803F0000B03F50
:102760000000C8422DE9F04F89B00446204601F030
:1027700073FC054639480168284601F001FB3749DA
:10278000086037493548006801F092FD02D23448AC
:102790003249086033493148006801F089FC02D2AF
:1027A00030482E49086030490968601A01F04BF83A
:1027B00007462E4A2E4B01F099F8054600222D4B74
:1027C00001F094F8CDE904012448006801F0ACFA66
:1027D0000546294A294B01F089F807460022254B76
:1027E00001F084F8CDE90001204601F02CF80546FF
:1027F000234A244B01F07AF8074600221D4B01F0D2
:1028000075F88246DDE9002300F03AFFCDE90201C8
:10281000DDE9042300F034FFCDE9060100F0FEFEFF
:10282000814611480460484601F07EFA05460022C0
:102830004FF07F5301F058F901D24FF078594846D4
:1028400001F072FA054600220F4B01F013F801D295
:102850004FF03E49484609B0BDE8F08F54000020D3
:102860000000C0400000C0C050000020B81E85EB32
:1028700051B89E3F0000F83FFCA9F1D24D62403FA5
:102880001361C3D32B65993F0000C0BF2DE9F04F02
:102890008DB00446894625462A4800682E1A2A48E3
:1028A0000068301A0C9027480560274806600C988D
:1028B00000F0C9FF0746254A254B01F017F8CDE97E
:1028C0000401284600F0BFFF0746204A204B01F0D4
:1028D0000DF882468B46304600F0B5FF07460022D1
:1028E0001C4B01F003F852465B46CDE9000100F0B5
:1028F000C7FECDE90201DDE9042300F0C1FECDE908
:102900000801484601F010FACDE90601DDE9082387
:1029100000F0B6FECDE90A0100F080FE81460E49C6
:10292000484601F0C5FC01D8DFF82C90002148464C
:1029300001F0BEFB01D84FF0000948460DB0BDE8DC
:10294000F08F0000480000204C000020FCA9F1D2CC
:102950004D62803F0000B03F0000C8422DE9F047C3
:1029600035480078C0F10504344801682046FFF777
:10297000F9FE324908604FF4FA7031490860314974
:10298000086000212D48006801F092FC29D82B48EE
:1029900001684FF0824001F0BFFB82464FF07E514C
:1029A00001F0EEF90746254801684FF0824001F03A
:1029B000B3FB82464FF07E5101F0ABFC80463946B6
:1029C00001F04CFA06461E48006801F045FB8146BE
:1029D000314601F0A1FB054601F002FB18490860F1
:1029E00028E0164801684FF0824001F095FB8246CE
:1029F0004FF07E5101F08DFC0746104801684FF002
:102A0000824001F089FB82464FF07E5101F0B8F917
:102A10008046394601F022FA06460A48006801F06D
:102A20001BFB8146314601F077FB054601F0D8FAE1
:102A300004490860BDE8F0872C0000203400002025
:102A40001C0000202000002000B5034603E04FF4E6
:102A50007A7000F006F8181EA3F101018BB2F6D1CE
:102A600000BD00EBC001C9004FF0E0225161002120
:102A700091610521116100BF4FF0E021096901F466
:102A800080310029F8D004214FF0E0221161704715
:102A900000BF054A128802F04002002AF9D0C2B2F3
:102AA000014B1B1D1A807047004800402DE9F04182
:102AB0004FF480712948FEF767FD0546202127481D
:102AC000FEF762FD064608212448FEF75DFD074635
:102AD00010212248FEF758FD8046E80040EA8600B3
:102AE00040EA4800384310281DD2DFE800F01C18E7
:102AF00014160E1C1012081C1C1C0A1C0C1A022492
:102B000027E0032425E0052423E0042421E0052414
:102B10001FE005241DE006241BE0072419E008241B
:102B200017E0002415E00E480078012805DB0C486A
:102B30000078042801DC01240AE00948007806280E
:102B400005DB07480078092801DC092400E000249F
:102B500000BF00BF02480470BDE8F081000C0140D6
:102B60002C00002000B587B001210846FEF76CFD5F
:102B700001210420FEF778FD0320ADF800000420B9
:102B80008DF8030069461E48FEF72AFC04A8FFF7EB
:102B900021FC0020ADF810004FF6FF70ADF81400D6
:102BA0000020ADF81600ADF8120004A94FF08040E7
:102BB000FFF7BEFB00231A4603214FF08040FFF7CA
:102BC0009CF901A8FFF722FA0A20ADF80C0001A930
:102BD0004007FFF7C5F901218807FFF76DF90122CA
:102BE00011469007FFF71BFA00214FF08040FFF7D6
:102BF00070FB01218807FFF765F907B000BD0000F1
:102C00000008014000B587B001210420FEF71CFD3B
:102C100001210820FEF728FDC020ADF800000420A7
:102C20008DF8030069461C48FEF7DAFB04A8FFF79D
:102C3000D1FB0020ADF810004FF6FF70ADF8140086
:102C40000020ADF81600ADF8120004A91348FFF7F4
:102C50006FFB00231A4603211048FFF74EF901A825
:102C6000FFF7D4F90A20ADF80C0001A90B48FFF7D3
:102C700077F901210948FFF71FF90122114607489A
:102C8000FFF7CDF900210548FFF723FB0121034899
:102C9000FFF718F907B000BD000C01400008004024
:102CA0000EB50121C802FEF7DFFC6846FFF792FB74
:102CB00041F61F40ADF8000040F2CF70ADF80400BF
:102CC0000020ADF80600ADF802008DF80800694656
:102CD0000848FFF72DFB01210648FFF7EDF8012218
:102CE00011460448FFF79BF901210248FFF7EAF873
:102CF0000EBD0000002C014008B54FF4E050ADF8C7
:102D0000000010208DF8030003208DF802006946B2
:102D10000148FEF765FB08BD0008014010B5002022
:102D2000FFF720F810BD000008B501210846FEF7A6
:102D30009BFC01210748FEF7DFFB4FF49C70ADF8C8
:102D4000000048208DF8030069460348FEF748FB61
:102D500008BD000000023000000C01401CB5FEF769
:102D60007FFEFEF791FCFFF7C7FFFFF7DDFFFFF7E0
:102D7000D5FF4FF41650FFF749FBFEF713FCFFF7A2
:102D8000F1FEFFF73FFFFFF78BFF002421E00A2051
:102D9000FFF75AFE0F48006810B900F009FC01E087
:102DA00000F0E8F92046641CC82812D100F020F891
:102DB000074600F023F880460748006800F0B4FF9B
:102DC0004246CDE90001394604A0FDF70FFA002480
:102DD00000BFDCE71000002034000020736C3A25AF
:102DE000642C73723A25642C6B3A25663B0A00000A
:102DF0000148006870470000140000200148006886
:102E000070470000180000202DE9F0470446622CAE
:102E10002BD014DC362C76D008DCA4F13100052848
:102E200022D2DFE800F09AA4AFBAC500372C6BD0ED
:102E3000382C6AD0392C69D0612C15D10AE0A4F164
:102E400065000928ECD2DFE800F01E262E363E464B
:102E5000627A810072480168006800F0CFF970481A
:102E6000016870A0FDF7C2F9D7E06D4800684142E3
:102E70006B480068404200F0C1F9694801686DA0E4
:102E8000FDF7B4F9C9E06F49084600F0B7F96EA044
:102E9000FDF7ACF9C1E00021084600F0AFF96CA0E5
:102EA000FDF7A4F9B9E04FF452705D4908606AA0DB
:102EB000FDF79CF9B1E040F27620594908606CA01A
:102EC000FDF794F9A9E040F22620554908606FA06B
:102ED000FDF78CF9A1E05248006800F0B4FC074609
:102EE000704A714B00F002FD054600F07DFC814602
:102EF0004B480168484600F081F9494801686BA0D9
:102F0000FDF774F989E05DE067E071E07BE044483B
:102F1000006800F098FC0746624A634B00F0E6FC4C
:102F2000054600F061FC814649463D48006800F0D6
:102F300065F93B48016862A0FDF758F96DE0002093
:102F40006449086064A0FDF751F966E00120614919
:102F5000086064A0FDF74AF95FE0654865490860CC
:102F600065486649086066A0FDF740F955E062488B
:102F7000604908604FF07E506049086063A0FDF72B
:102F800035F94AE064485B4908604FF07E505B4980
:102F9000086062A0FDF72AF93FE0634855490860E0
:102FA0004FF07E505549086060A0FDF71FF934E0EE
:102FB0004FF07E504F490860504908605EA0FDF711
:102FC00015F92AE04FF07E504A49086056484B49AF
:102FD00008605CA0FDF70AF91FE04FF07E504549FC
:102FE00008604D484549086059A0FDF7FFF814E016
:102FF0004FF07E503F4908603F484049086057A065
:10300000FDF7F4F809E03C483A49086038483B4984
:10301000086055A0FDF7EAF800BF00BFBDE8F087E3
:1030200000000020464F5257415244202825642971
:10303000000000004241434B574152442028256480
:10304000290000009F8601004252414B4544000088
:1030500053544F50504544005357495443484544F6
:1030600020544F20484947482053504545440000CC
:10307000535749544348454420544F204D454449F3
:10308000554D2053504545440000000053574954C6
:103090004348454420544F204C4F572053504545FA
:1030A000440000009A9999999999E93F464F5257DF
:1030B000415244204C4546542028256429000000F4
:1030C000464F5257415244205249474854202825E0
:1030D00064290000100000204D4F44452041555404
:1030E0004F0000004D4F44452052454D4F54450080
:1030F000CDCCCCBE38000020CDCCCC3E3C00002056
:10310000444952454354494F4E5F3100444952456A
:103110004354494F4E5F32009A99193F44495245F2
:103120004354494F4E5F3300CDCC4C3F4449524548
:103130004354494F4E5F3400444952454354494F2C
:103140004E5F3500444952454354494F4E5F360067
:10315000444952454354494F4E5F37004449524514
:103160004354494F4E5F3800444952454354494FF8
:103170004E5F39002DE9F0411B4800681B49884229
:1031800010D11B48006888420CD1642000F0C4F9BB
:10319000642000F0E7F9642000F072F9642000F088
:1031A00095F91EE01248006800F056FF07461148E6
:1031B0000168384600F0B0FF064600F011FF0446F3
:1031C0000948006800F048FF07460B480168384688
:1031D00000F0A2FF064600F003FF0546214600F07E
:1031E00017F8BDE8F08100001C0000209F86010058
:1031F000200000203C00002038000020024A10601F
:10320000024A1160704700001C00002020000020CE
:103210002DE9F04F85B007460C46FFF7E9FD8246E1
:10322000FFF7ECFD834600200490039032200290CB
:103230004042019037B94FF00008002004907049D7
:10324000086048E0002F23DD4FF00108A7EB0A05D6
:1032500015F1320F0EDB322D0CDC6948016828466F
:10326000FFF718FA664908600846006800F0B8FEE3
:10327000049030E0384600F0C7F8009000F0ECFE13
:103280005F4908600846006800F0AAFE049022E04A
:103290004FF0FF38AAEB070515F1320F0EDB322D88
:1032A0000CDC574801682846FFF7F4F954490860D8
:1032B0000846006800F094FE04900CE0784200F0AC
:1032C000A3F8009000F0C8FE4D4908600846006869
:1032D00000F086FE049034B94FF0000900200390FE
:1032E0004849086048E0002C23DD4FF00109A4EBB9
:1032F0000B0616F1320F0EDB322E0CDC4148016852
:103300003046FFF7C3FA3F4908600846006800F0FE
:1033100067FE039030E0204600F076F8009000F061
:103320009BFE384908600846006800F059FE03908B
:1033300022E04FF0FF39ABEB040616F1320F0EDB43
:10334000322E0CDC2F4801683046FFF79FFA2D49DA
:1033500008600846006800F043FE03900CE06042FD
:1033600000F052F8009000F077FE26490860084609
:10337000006800F035FE0390B8F1000F06D1002080
:1033800000F0CAF8002000F0EDF815E0B8F1010FE8
:1033900009D1002000F0E6F8049800F05DFE0090EE
:1033A00000F0BAF808E0002000F0B6F8049800F049
:1033B00053FE009000F0D6F8B9F1000F06D10020BE
:1033C00000F05EF8002000F081F815E0B9F1010F7F
:1033D00009D1002000F07AF8039800F03DFE00903B
:1033E00000F04EF808E0002000F04AF8039800F0E2
:1033F00033FE009000F06AF805B0BDE8F08F0000E1
:10340000240000202800002001460020322291FBE9
:10341000F2F2D21E122A2ED2DFE802F0090B0D0FB3
:1034200011131517191B1D1F21232527292B1820C0
:1034300023E01B2021E01E201FE01F201DE0212093
:103440001BE0242019E0262017E0282015E02B207F
:1034500013E02E2011E032200FE036200DE03B205B
:103460000BE0432009E0492007E0532005E05E20FF
:1034700003E0632001E0002000BF00BF70470000B0
:103480002DE9F04704460E48008800F0FDFD814616
:10349000214600F041FE07460A4900F0DFFC0646DF
:1034A0000748008800F0F0FD8046314600F03CFF00
:1034B000054600F0B1FD04490880BDE8F087000032
:1034C000040000200000C842340400402DE9F04709
:1034D00004460E48008800F0D7FD8146214600F0E2
:1034E0001BFE07460A4900F0B9FC0646074800885B
:1034F00000F0CAFD8046314600F016FF054600F098
:103500008BFD04490880BDE8F0870000040000201E
:103510000000C842380400402DE9F04704460E4838
:10352000008800F0B1FD8146214600F0F5FD074618
:103530000A4900F093FC06460748008800F0A4FD05
:103540008046314600F0F0FE054600F065FD044976
:103550000880BDE8F0870000040000200000C84299
:103560003C0400402DE9F04704460E48008800F076
:103570008BFD8146214600F0CFFD07460A4900F049
:103580006DFC06460748008800F07EFD8046314607
:1035900000F0CAFE054600F03FFD04490880BDE882
:1035A000F0870000040000200000C84240040040F2
:1035B00010B5FFF77BFA0A48007810B1FFF7CEF993
:1035C00006E000200749086000210846FFF716FEC4
:1035D0000548016805480068FFF71AFE10BD0000A5
:1035E0002C00002034000020200000201C000020BF
:1035F00010B500290AD00878002807D0054878447B
:10360000FDF7C8FA002801D0002010BD0248784418
:1036100010BD0000DE0E0000D60E000021F00042BA
:10362000A2F16052B2F5801F01F0004328BFD2F131
:103630007F6C0BD95FEA001C43EAC20242EB507078
:1036400018BF704728BF20F001007047B2F5801FF7
:10365000BCBF184670474FEA410C1CF5001F02D250
:10366000084600F020BE70B500F0EAF900000089BD
:10367000FFF7F6BF4FF00040A0F580007047000054
:1036800010B591EA030F48BF83F0004300F16A824E
:10369000841A71EB030C05D2121943EB0C03001BC7
:1036A00061EB0C01DFF824E14FEA1154A4EB135C49
:1036B0001EEA430F18BF9EEA445F73D023EA0E034D
:1036C000DCF1200E21EA045143F4801332D322FAB4
:1036D0000CFE10EB0E0023FA0CFE41EB0E01CCF1B8
:1036E000200E03FA0EFE10EB0E0051F10001B1F5B1
:1036F000801FCCF1200E32D201EB045112FA0EF2EF
:10370000BDE8104058BF7047401C38BF5FEA420216
:1037100018BF7047002814BF20F0010041F10001DC
:103720004FEA410313F5001F38BF7047A1F1C041B4
:1037300000F0D4B9012A43EB0302ACF1200CDCF118
:103740001F0E32BF4FF0000E23FA0CF310EB0300F4
:1037500041EB0451B4EB115FD0D0A1EB045101F562
:10376000801149085FEA300001EB04510ED350F19B
:10377000000038BF12FA0EFE08D1BDE81040C9E7BC
:10378000401C38BF5FEA4202CAD1C3E7BDE810401F
:103790004FEA410313F5001F38BF7047A1F1C04144
:1037A00000F09CB99EEA445F08D011EA5E0FBDE8C4
:1037B000104004BF01F0004100207047BDE81040F8
:1037C00070B500F03DF900BF64FBBE3E0000E0FFB5
:1037D000491058BFC1F140415B1058BFC3F140438D
:1037E0008B42EFF3008070474FEA41034FEA535397
:1037F000A3F58063D3F11E03C8BFD3F1210C0CDD08
:103800004FF0004242EAC12242EA505232FA03FC2F
:103810008CEAE17CACEBE1707047102BC4BF002058
:10382000704703F5787CBCF1FF3F04D06FF0004295
:1038300082EA2100704770B500F002F949922480B5
:1038400000207047F2E710F0004248BF4042B0FA53
:1038500080F310FA03F10AD0C3F11D0303F580636E
:103860004FEA415002EB035202EBD12170474FF077
:103870000000704751EA030C17D41CF5801F58BF95
:10388000BCF5801F00F10680994218BF704708BF41
:103890009042704707D711F5801F58BF13F5801F5E
:1038A00019D499427047894270471CF5801F08D58A
:1038B000BCF5801FF7D58B4218BF704708BF824206
:1038C00070474FF4001C1CEB410F38BF1CEB430F3B
:1038D00001D28B42704770B500F0B2F892244900D3
:1038E0004FF000514FF08053FFF772BFDFF848C12F
:1038F00070B51CEA111E1EBF1CEA13159EEA0C0FC0
:1039000095EA0C0F00F06F8081EA030423EA4C1360
:103910004EEAD47E21EA4C1141F4801143F4801325
:10392000AE44A1FB024CA0FB0365AEF17F7E3619CD
:1039300055EB0C05A1FB034C4CF10003A0FB021C52
:1039400016EB0C06654153F10003094218BF46F01F
:10395000010613F4007F0BD14FEA03314FEA053023
:10396000340341EA155140EA16506FF003020AE0B1
:103970004FEAC3214FEAC520F40241EA555140EA1B
:1039800056506FF0020202EB2E4201EB025585EA1F
:10399000CE710AD05FEA440C18BF24F0004450F105
:1039A000000041F1000120EAD47040F2FE7C624543
:1039B00000D270BDA84214BF4FF080444FF0404485
:1039C000002E08BF0024BEF1806FA8BFA1F1C04146
:1039D000BDE8704080F282804FF0000001F1C041EC
:1039E00001F0004170479EEA0C0F0CEA131518BF56
:1039F00095EA0C0F06D04FF0000081EA030E0EF09E
:103A0000004170BD00F01CF88900013E00F007B8CD
:103A100000F009B84FEA430C5FEA5C5C08D081EA29
:103A2000030100F05BB84FEA410C5FEA5C5CF6D141
:103A30004FF00000014970470000FF070000F87FC9
:103A40000EF1020E2EF0030E5EF8046B364205D422
:103A5000012A43EB030515F5001F12D8012841EB9D
:103A6000010C1CF5001F0CD80ED14FEAD17C15F5C6
:103A7000001F0CEB4C0C0CF1020C08BF4CEBD37C80
:103A800004E04FF0080C01E04FEAD37C0CEB4C054E
:103A900026FA05F606F00706B6F1040C06D20EEB80
:103AA000860CBDE870404CF0010C6047DFE80CF07C
:103AB000090B02024FF000414FF00000A1F5002178
:103AC00070BD19461046012851EB010418BFD4F50A
:103AD000001484BF002001F0004170BD0808A0F56B
:103AE00000114FEA3101704753EA010C17D41CF55D
:103AF000801F58BFBCF5801F00F106808B4218BFA5
:103B0000704708BF8242704707D713F5801F58BF20
:103B100011F5801F19D48B4270479B4270471CF5EA
:103B2000801F08D5BCF5801FF7D5994218BF704794
:103B300008BF904270474FF4001C1CEB430F38BF86
:103B40001CEB410F01D2994270470FB40CBC03BC6F
:103B5000FFF7C1BE10B591EA030F48BF83F00043E1
:103B60003FF596AD841A71EB030C07D212198CF055
:103B7000004C43EB0C03001B61EB0C01DFF8A4E1EC
:103B80004FEA1154A4EB135C1EEA430F18BF9EEAE0
:103B9000445F00F0B08023EA6E03524221EA0451F0
:103BA000C3EB6E0338BF5B1EDCF1200E25D322FA77
:103BB0000CFE10EB0E0043FA0CFE41EB0E01CCF1B3
:103BC000200E03FA0EFE10EB0E0051F10001CCF1B5
:103BD000200E29D412FA0EF201EB0451BDE8104078
:103BE00058BF7047401C1CBFB2F1004F70470028FF
:103BF0000CBF491C20F00100704712EB020E43EB92
:103C0000030218BF4FF0010E4EEA4202ACF1200C45
:103C1000DCF11E0E54D943FA0CFE10EB0E0051F1EC
:103C2000FF31CCF11E0ED5D50EF1010E12FA0EFEAB
:103C3000404141EB010101EB445C5FEA5C5C10D95F
:103C400010EBDE7001EB045138BFBEF1004FBDE850
:103C5000104018BF704700280CBF491C20F001001D
:103C6000704730D24FEAD42C11F5001124F40064CF
:103C70001BD0B1FA81F20B3AA41AA41ED2F1200390
:103C8000914030FA03F31943904001EBCC71002CC2
:103C900001EB0451BDE81040A8BF704701F1C041DD
:103CA0004FF0000001F000417047B0FA80F310FAC5
:103CB00003F100D110BDE41A173C4805C90AE4E736
:103CC00001EB045110BD491001EB0451BDE8104057
:103CD0004FEA300002E04FF0000170474A0008BF91
:103CE0000042F8D0B2F5001F28BF704701F0004134
:103CF0004FF0000070479EEA445F07D011EA5E0F64
:103D0000BDE8104004BF002100207047BDE810400E
:103D100070B5FFF795FE00BF40DFF63E83F000412F
:103D2000104670470000E0FF43004FEAD30C4FEA13
:103D30003C0C43401FBF40070CF1605113F0FE4F95
:103D400070471CF0006F03D100200CF00041704759
:103D50000CF0004343EA507010B540EACC0000F08C
:103D60005CFA00BF000000924FEA0001FFF7B6BE08
:103D70004FF000414FF00000A1F500217047000016
:103D800090EA010F48BF81F0004100F1D482421A4D
:103D90003CBF801A89184FEAD0524FF07F4C1CEA82
:103DA000410FA2EBD15318BF9CEA026F00F03B8099
:103DB0004FF0004C4CEA00204CEA012121FA03FCB0
:103DC00010EB0C0C1ED202F1FF325FEA1C2040EB1C
:103DD000C25038BF70471CF07F0F4FEA400C18BF2D
:103DE000BCF17F4F38BF7047C3F12003994008BF33
:103DF00020F00100BCF17F4F38BF7047A0F1C040F8
:103E000000F051BA4FEA3C00000A40EBC25028BF14
:103E10001CF0FF0F4FEA400CE6D018BFBCF17F4FFB
:103E200038BF7047EAE79CEA026F05D010EA5C0FE2
:103E300008BF00F00040704710B500F0EEF900BF79
:103E400064FBBE3E401058BFC0F14040491058BF0F
:103E5000C1F140418142EFF3008070474FF47F0C85
:103E60001CEAD0121EBF1CEAD11392EA0C0F93EA8F
:103E70000C0F00F0858090EA010F48BF42F4807279
:103E800040F4000C41F400002CF07F4120F07F4012
:103E900000B58142A2EB03020FF2081CACEB504EBE
:103EA000C0F100009EF800E04FEA4E0E00FB0EFC51
:103EB00038BF49004FEA2C1C02F5FA020CFB0EF346
:103EC0004FEACE1E4FEA112C4FEAC1210EEB635E82
:103ED00042EB22420EFB0CFC4FEA1C5300FB031189
:103EE0004FEA112C4FEA01310EFB0CFC4FEADC4C7F
:103EF00000FB0C11C14228BF09184CEB03335DF8DD
:103F000004EB10EB410143EBC250B2F57C0F38BF1C
:103F1000704729D512F0F00F1CBF00F1C04000F02F
:103F200000407047008182838485868788898B8CD6
:103F30008D8E8F919293959697999A9C9D9FA0A212
:103F4000A3A5A7A8AAACAEB0B2B3B5B7B9BCBEC062
:103F5000C2C5C7C9CCCED1D4D7D9DCDFE2E6E9EC03
:103F6000F0F3F7FAFE0000004FEA400C0CF1807C01
:103F7000BCF17E4F28BF7047B0F1C04000F093B94C
:103F800090EA010F0CEAD11348BF42F480726245F7
:103F900038BF634507D213F47F0F16D080EA0100C3
:103FA00000F00040704710B500F037F9097EFC3E84
:103FB00000F005B880EA010000F00040704780EA98
:103FC000010000F0004000F06EB912F47F0F04BF52
:103FD0000248704780EA010000F065B90000C07F28
:103FE00041000B0ED3F19E0208D950F400034FEAB2
:103FF000032323FA02F048BF4042704710B500F097
:104000000CF900BF49922480002070476FF00042F5
:1040100082EA200070470000C10DD1F19E0206DB4C
:104020004FEA002343F0004323FA02F070470042B6
:1040300007D54FEA4001B1F1FE4F02D24FF0000028
:10404000704710B500F0E9F84992248000207047CD
:104050006FEA20007047000010F0004148BF404266
:10406000B0FA80F310FA03F2C3F19D030BD051EACA
:10407000C35101EB1220530638BF704700F1010015
:1040800008BF20F001007047B0FA80F310FA03F285
:10409000C3F19D030AD0D90501EB1220530638BFA6
:1040A000704700F1010008BF20F0010070470000D8
:1040B00050EA010C00F113801CF5000F58BFBCF54D
:1040C000000F01D48842704707D710F5000F58BF82
:1040D00011F5000F15D488427047894270471CF5CE
:1040E000000F04D5BCF5000FF7D5814270474FF0A3
:1040F000807C1CEB400F38BF1CEB410F01D281428A
:10410000704710B500F089F8922449004FF0005034
:104110004FF08051FFF796BE4FF47F0C1CEAD0128F
:104120001EBF1CEAD11392EA0C0F93EA0C0F00F0A9
:10413000478090EA010F48BF42F480724FF0004C74
:104140004CEA00204CEA012102EB0302A0FB011320
:10415000A2F50002002918BF43F001035B0028BF4D
:104160004FEA330342EB22425FEA132C4CEBC2507E
:104170002EBFBCEB436FB2F57C0F70474FEA036C68
:10418000BCF1004F08BF20F00100B2F57C0F38BF32
:1041900070470BD582F0FF0212F5803FC8BF704711
:1041A00000F1C040D8BF00F00040704700F5000C9F
:1041B0005FEA4C0C48BF7047B0F1C04000F073B8E4
:1041C00090EA010F0CEAD11348BF42F480726245B5
:1041D00038BF634504D280EA010000F00040704718
:1041E00010B500F01AF800BF8900013E00F007B8D2
:1041F00000F009B85FEA410C5FEA1C6C08D080EA65
:10420000010000F050B85FEA400C5FEA1C6CF6D188
:104210004FF00040A0F5800070470EF1020E2EF026
:10422000030E5EF8044B244204D44FEA4102B2F17B
:104230007F4F11D84FEA4003B3F17F4F0CD80ED116
:104240004FEAD07CB2F17F4F0CEB4C0C0CF1020C1E
:1042500008BF4CEBD17C04E04FF0080C01E04FEAC2
:10426000D17C0CEB4C0324FA03F404F00704B4F102
:10427000040C06D20EEB840CBDE810404CF0010C8F
:104280006047DFE80CF0070802024FF00040A0F59D
:10429000800010BD0846420018BFD2F1807288BF6E
:1042A00000F0004010BDFF2141EAD050C00570472A
:1042B00051EA000C00F113801CF5000F58BFBCF54B
:1042C000000F01D48142704707D711F5000F58BF86
:1042D00010F5000F15D481427047894270471CF5D4
:1042E000000F04D5BCF5000FF7D5884270474FF09A
:1042F000807C1CEB410F38BF1CEB400F01D2884281
:10430000704780EA010081EA000180EA0100FFF7BE
:10431000F8BE80F0004090EA010F7FF538AD81F0E3
:10432000004100F008B8000090EA010F48BF81F09A
:1043300000413FF52CAD421A04D882F00042A0EBB8
:10434000020011444FEAD0524FF07F4C1CEA410F5B
:10435000A2EBD15318BF9CEA026F4AD04FF0004C39
:104360004CEA00204CEA012121FA03FCB0EB0C0CD2
:104370000FD412F0FE0F36D05FEA4C001DD50012AC
:1043800040EBC25038BF70471CF03F0F18BF70475A
:104390000BE0A2F101025FEA1C2040EBC25038BFE3
:1043A00070471CF07F0F18BF7047C3F1200399407E
:1043B00014BF401E20F00100704780084FEA12230E
:1043C00008BF7047B0FA80FCA2EB0C02CCF1280CBD
:1043D00060FA0CF093EA122F04BF00EBC250704752
:1043E0004FEAC3707047130A5FEADC1008BF7047DA
:1043F000F6E79CEA026F04D010EA5C0F08BF0020C9
:10440000704710B5FFF709FF40DFF63E81F000402E
:104410007047FCF72DB90400000800000000000000
:10442000000200010000100002400000000000A097
:104430000000000005400000000000C8000000006F
:104440000C4000000000409C0000000019400000EB
:104450000020BCBE0000000034400000BFC91B8E1D
:1044600000000004B5400000504BCFD06607E2CFFB
:10447000010000006C4100003E8251AADFEEA7342B
:1044800001000000D9420000DCB5A0E23A301F97DD
:10449000FFFFFFFFB4450000FD25A0C8E9A3C14F01
:1044A000FFFFFFFFFF3F0000000000800000000052
:1044B000FF3F00000000008000000000F8440008FA
:1044C000000000206C00000028010008644500087E
:1044D0006C00002064060000440100081C0000007D
:1044E00043000000F8FFFFFF0C0000000E0000007A
:1044F0000F0000002E000000760200000000000007
:1045000000000000000000000100000000000000AA
:10451000000000000000000000000000000000009B
:10452000000000000000000000000000000000008B
:104530000000803F0000803F0000000000000000FD
:10454000000000000000000000000000000000006B
:104550000000000001020304010203040607080929
:044560000204060843
:04000005080000ED02
:00000001FF
